{
  "_format": "hh-sol-artifact-1",
  "contractName": "Wave",
  "sourceName": "contracts/Wave.sol",
  "abi": [
    {
      "inputs": [],
      "stateMutability": "payable",
      "type": "constructor"
    },
    {
      "anonymous": false,
      "inputs": [
        {
          "components": [
            {
              "internalType": "address",
              "name": "waver",
              "type": "address"
            },
            {
              "internalType": "string",
              "name": "message",
              "type": "string"
            },
            {
              "internalType": "uint256",
              "name": "timestamp",
              "type": "uint256"
            }
          ],
          "indexed": false,
          "internalType": "struct Wave.SWave",
          "name": "newWave",
          "type": "tuple"
        }
      ],
      "name": "NewWave",
      "type": "event"
    },
    {
      "inputs": [],
      "name": "getTotalWaves",
      "outputs": [
        {
          "components": [
            {
              "internalType": "address",
              "name": "waver",
              "type": "address"
            },
            {
              "internalType": "string",
              "name": "message",
              "type": "string"
            },
            {
              "internalType": "uint256",
              "name": "timestamp",
              "type": "uint256"
            }
          ],
          "internalType": "struct Wave.SWave[]",
          "name": "",
          "type": "tuple[]"
        }
      ],
      "stateMutability": "view",
      "type": "function"
    },
    {
      "inputs": [
        {
          "internalType": "address",
          "name": "",
          "type": "address"
        }
      ],
      "name": "lastWavedAt",
      "outputs": [
        {
          "internalType": "uint256",
          "name": "",
          "type": "uint256"
        }
      ],
      "stateMutability": "view",
      "type": "function"
    },
    {
      "inputs": [
        {
          "internalType": "string",
          "name": "_message",
          "type": "string"
        }
      ],
      "name": "wave",
      "outputs": [],
      "stateMutability": "nonpayable",
      "type": "function"
    }
  ],
  "bytecode": "0x6080604052655af3107a4000600055620000596040518060400160405280600981526020017f50455720504557200a00000000000000000000000000000000000000000000008152506200008160201b620003e31760201c565b60644442620000699190620001ce565b6200007591906200026b565b60028190555062000312565b62000121816040516024016200009891906200018e565b6040516020818303038152906040527f41304fac000000000000000000000000000000000000000000000000000000007bffffffffffffffffffffffffffffffffffffffffffffffffffffffff19166020820180517bffffffffffffffffffffffffffffffffffffffffffffffffffffffff83818316178352505050506200012460201b60201c565b50565b60008151905060006a636f6e736f6c652e6c6f679050602083016000808483855afa5050505050565b60006200015a82620001b2565b620001668185620001bd565b93506200017881856020860162000235565b620001838162000301565b840191505092915050565b60006020820190508181036000830152620001aa81846200014d565b905092915050565b600081519050919050565b600082825260208201905092915050565b6000620001db826200022b565b9150620001e8836200022b565b9250827fffffffffffffffffffffffffffffffffffffffffffffffffffffffffffffffff0382111562000220576200021f620002a3565b5b828201905092915050565b6000819050919050565b60005b838110156200025557808201518184015260208101905062000238565b8381111562000265576000848401525b50505050565b600062000278826200022b565b915062000285836200022b565b925082620002985762000297620002d2565b5b828206905092915050565b7f4e487b7100000000000000000000000000000000000000000000000000000000600052601160045260246000fd5b7f4e487b7100000000000000000000000000000000000000000000000000000000600052601260045260246000fd5b6000601f19601f8301169050919050565b610ec280620003226000396000f3fe608060405234801561001057600080fd5b50600436106100415760003560e01c8063449d46c0146100465780639a2cdc0814610062578063a42a466314610080575b600080fd5b610060600480360381019061005b91906107f9565b6100b0565b005b61006a61027a565b6040516100779190610a34565b60405180910390f35b61009a600480360381019061009591906107d0565b6103cb565b6040516100a79190610b1a565b60405180910390f35b6100b861047c565b600060405180606001604052803373ffffffffffffffffffffffffffffffffffffffff168152602001838152602001428152509050600381908060018154018082558091505060019003906000526020600020906003020160009091909190915060008201518160000160006101000a81548173ffffffffffffffffffffffffffffffffffffffff021916908373ffffffffffffffffffffffffffffffffffffffff160217905550602082015181600101908051906020019061017c9291906106b0565b506040820151816002015550506064600254424461019a9190610bf1565b6101a49190610bf1565b6101ae9190610d28565b6002819055506101f56040518060400160405280601681526020017f52616e646f6d20232067656e6572617465643a2025640000000000000000000081525060025461054f565b60326002541161023f5761023e6040518060400160405280600781526020017f257320776f6e2100000000000000000000000000000000000000000000000000815250336105eb565b5b7fcf571dcaf9bb6b78adf9bda51508e47eb60bcc53d32ec2f1363d82062890861e8160405161026e9190610af8565b60405180910390a15050565b60606003805480602002602001604051908101604052809291908181526020016000905b828210156103c257838290600052602060002090600302016040518060600160405290816000820160009054906101000a900473ffffffffffffffffffffffffffffffffffffffff1673ffffffffffffffffffffffffffffffffffffffff1673ffffffffffffffffffffffffffffffffffffffff16815260200160018201805461032790610cc5565b80601f016020809104026020016040519081016040528092919081815260200182805461035390610cc5565b80156103a05780601f10610375576101008083540402835291602001916103a0565b820191906000526020600020905b81548152906001019060200180831161038357829003601f168201915b505050505081526020016002820154815250508152602001906001019061029e565b50505050905090565b60016020528060005260406000206000915090505481565b610479816040516024016103f79190610a56565b6040516020818303038152906040527f41304fac000000000000000000000000000000000000000000000000000000007bffffffffffffffffffffffffffffffffffffffffffffffffffffffff19166020820180517bffffffffffffffffffffffffffffffffffffffffffffffffffffffff8381831617835250505050610687565b50565b42601e600160003373ffffffffffffffffffffffffffffffffffffffff1673ffffffffffffffffffffffffffffffffffffffff168152602001908152602001600020546104c99190610bf1565b10610509576040517f08c379a000000000000000000000000000000000000000000000000000000000815260040161050090610ad8565b60405180910390fd5b42600160003373ffffffffffffffffffffffffffffffffffffffff1673ffffffffffffffffffffffffffffffffffffffff16815260200190815260200160002081905550565b6105e78282604051602401610565929190610aa8565b6040516020818303038152906040527f9710a9d0000000000000000000000000000000000000000000000000000000007bffffffffffffffffffffffffffffffffffffffffffffffffffffffff19166020820180517bffffffffffffffffffffffffffffffffffffffffffffffffffffffff8381831617835250505050610687565b5050565b6106838282604051602401610601929190610a78565b6040516020818303038152906040527f319af333000000000000000000000000000000000000000000000000000000007bffffffffffffffffffffffffffffffffffffffffffffffffffffffff19166020820180517bffffffffffffffffffffffffffffffffffffffffffffffffffffffff8381831617835250505050610687565b5050565b60008151905060006a636f6e736f6c652e6c6f679050602083016000808483855afa5050505050565b8280546106bc90610cc5565b90600052602060002090601f0160209004810192826106de5760008555610725565b82601f106106f757805160ff1916838001178555610725565b82800160010185558215610725579182015b82811115610724578251825591602001919060010190610709565b5b5090506107329190610736565b5090565b5b8082111561074f576000816000905550600101610737565b5090565b600061076661076184610b5a565b610b35565b90508281526020810184848401111561077e57600080fd5b610789848285610c83565b509392505050565b6000813590506107a081610e75565b92915050565b600082601f8301126107b757600080fd5b81356107c7848260208601610753565b91505092915050565b6000602082840312156107e257600080fd5b60006107f084828501610791565b91505092915050565b60006020828403121561080b57600080fd5b600082013567ffffffffffffffff81111561082557600080fd5b610831848285016107a6565b91505092915050565b60006108468383610976565b905092915050565b61085781610c47565b82525050565b61086681610c47565b82525050565b600061087782610b9b565b6108818185610bbe565b93508360208202850161089385610b8b565b8060005b858110156108cf57848403895281516108b0858261083a565b94506108bb83610bb1565b925060208a01995050600181019050610897565b50829750879550505050505092915050565b60006108ec82610ba6565b6108f68185610bcf565b9350610906818560208601610c92565b61090f81610e15565b840191505092915050565b600061092582610ba6565b61092f8185610be0565b935061093f818560208601610c92565b61094881610e15565b840191505092915050565b6000610960602883610be0565b915061096b82610e26565b604082019050919050565b600060608301600083015161098e600086018261084e565b50602083015184820360208601526109a682826108e1565b91505060408301516109bb6040860182610a16565b508091505092915050565b60006060830160008301516109de600086018261084e565b50602083015184820360208601526109f682826108e1565b9150506040830151610a0b6040860182610a16565b508091505092915050565b610a1f81610c79565b82525050565b610a2e81610c79565b82525050565b60006020820190508181036000830152610a4e818461086c565b905092915050565b60006020820190508181036000830152610a70818461091a565b905092915050565b60006040820190508181036000830152610a92818561091a565b9050610aa1602083018461085d565b9392505050565b60006040820190508181036000830152610ac2818561091a565b9050610ad16020830184610a25565b9392505050565b60006020820190508181036000830152610af181610953565b9050919050565b60006020820190508181036000830152610b1281846109c6565b905092915050565b6000602082019050610b2f6000830184610a25565b92915050565b6000610b3f610b50565b9050610b4b8282610cf7565b919050565b6000604051905090565b600067ffffffffffffffff821115610b7557610b74610de6565b5b610b7e82610e15565b9050602081019050919050565b6000819050602082019050919050565b600081519050919050565b600081519050919050565b6000602082019050919050565b600082825260208201905092915050565b600082825260208201905092915050565b600082825260208201905092915050565b6000610bfc82610c79565b9150610c0783610c79565b9250827fffffffffffffffffffffffffffffffffffffffffffffffffffffffffffffffff03821115610c3c57610c3b610d59565b5b828201905092915050565b6000610c5282610c59565b9050919050565b600073ffffffffffffffffffffffffffffffffffffffff82169050919050565b6000819050919050565b82818337600083830152505050565b60005b83811015610cb0578082015181840152602081019050610c95565b83811115610cbf576000848401525b50505050565b60006002820490506001821680610cdd57607f821691505b60208210811415610cf157610cf0610db7565b5b50919050565b610d0082610e15565b810181811067ffffffffffffffff82111715610d1f57610d1e610de6565b5b80604052505050565b6000610d3382610c79565b9150610d3e83610c79565b925082610d4e57610d4d610d88565b5b828206905092915050565b7f4e487b7100000000000000000000000000000000000000000000000000000000600052601160045260246000fd5b7f4e487b7100000000000000000000000000000000000000000000000000000000600052601260045260246000fd5b7f4e487b7100000000000000000000000000000000000000000000000000000000600052602260045260246000fd5b7f4e487b7100000000000000000000000000000000000000000000000000000000600052604160045260246000fd5b6000601f19601f8301169050919050565b7f506c732077616974203330207365636f6e6473206265666f726520776176696e60008201527f6720616761696e2e000000000000000000000000000000000000000000000000602082015250565b610e7e81610c47565b8114610e8957600080fd5b5056fea264697066735822122038fbb3a1e367cca8786925223350cfe8bf63e438fc585f759f59b927e96cb08b64736f6c63430008040033",
  "linkReferences": {},
  "deployedLinkReferences": {}
}