{
  "_format": "hh-sol-artifact-1",
  "contractName": "Wave",
  "sourceName": "contracts/Wave.sol",
  "abi": [
    {
      "inputs": [],
      "stateMutability": "nonpayable",
      "type": "constructor"
    },
    {
      "anonymous": false,
      "inputs": [
        {
          "indexed": true,
          "internalType": "address",
          "name": "from",
          "type": "address"
        },
        {
          "indexed": false,
          "internalType": "uint256",
          "name": "timestamp",
          "type": "uint256"
        },
        {
          "indexed": false,
          "internalType": "string",
          "name": "message",
          "type": "string"
        }
      ],
      "name": "NewWave",
      "type": "event"
    },
    {
      "inputs": [],
      "name": "getTotalWaves",
      "outputs": [
        {
          "internalType": "uint256",
          "name": "",
          "type": "uint256"
        }
      ],
      "stateMutability": "view",
      "type": "function"
    },
    {
      "inputs": [],
      "name": "getallwaves",
      "outputs": [
        {
          "components": [
            {
              "internalType": "address",
              "name": "waver",
              "type": "address"
            },
            {
              "internalType": "string",
              "name": "message",
              "type": "string"
            },
            {
              "internalType": "uint256",
              "name": "timestamp",
              "type": "uint256"
            }
          ],
          "internalType": "struct Wave.SWave[]",
          "name": "",
          "type": "tuple[]"
        }
      ],
      "stateMutability": "view",
      "type": "function"
    },
    {
      "inputs": [
        {
          "internalType": "string",
          "name": "_message",
          "type": "string"
        }
      ],
      "name": "wave",
      "outputs": [],
      "stateMutability": "nonpayable",
      "type": "function"
    }
  ],
  "bytecode": "0x60806040523480156200001157600080fd5b506200005d6040518060400160405280600981526020017f50455720504557200a00000000000000000000000000000000000000000000008152506200006360201b620004851760201c565b620001f7565b62000103816040516024016200007a919062000170565b6040516020818303038152906040527f41304fac000000000000000000000000000000000000000000000000000000007bffffffffffffffffffffffffffffffffffffffffffffffffffffffff19166020820180517bffffffffffffffffffffffffffffffffffffffffffffffffffffffff83818316178352505050506200010660201b60201c565b50565b60008151905060006a636f6e736f6c652e6c6f679050602083016000808483855afa5050505050565b60006200013c8262000194565b6200014881856200019f565b93506200015a818560208601620001b0565b6200016581620001e6565b840191505092915050565b600060208201905081810360008301526200018c81846200012f565b905092915050565b600081519050919050565b600082825260208201905092915050565b60005b83811015620001d0578082015181840152602081019050620001b3565b83811115620001e0576000848401525b50505050565b6000601f19601f8301169050919050565b610d6980620002076000396000f3fe608060405234801561001057600080fd5b50600436106100415760003560e01c8063449d46c0146100465780638a049f28146100625780639a2cdc0814610080575b600080fd5b610060600480360381019061005b919061078d565b61009e565b005b61006a6102e9565b6040516100779190610955565b60405180910390f35b61008861043a565b6040516100959190610a0e565b60405180910390f35b60016000808282546100b09190610b15565b925050819055506100f76040518060400160405280601681526020017f257320776176656420772f206d65737361676520257300000000000000000000815250338361051e565b600260405180606001604052803373ffffffffffffffffffffffffffffffffffffffff16815260200183815260200142815250908060018154018082558091505060019003906000526020600020906003020160009091909190915060008201518160000160006101000a81548173ffffffffffffffffffffffffffffffffffffffff021916908373ffffffffffffffffffffffffffffffffffffffff16021790555060208201518160010190805190602001906101b6929190610682565b50604082015181600201555050600160003373ffffffffffffffffffffffffffffffffffffffff1673ffffffffffffffffffffffffffffffffffffffff168152602001908152602001600020600081548092919061021390610c4c565b91905055506102966040518060400160405280601481526020017f4e756d626572206f66207761766573202564200a000000000000000000000000815250600160003373ffffffffffffffffffffffffffffffffffffffff1673ffffffffffffffffffffffffffffffffffffffff168152602001908152602001600020546105bd565b3373ffffffffffffffffffffffffffffffffffffffff167f5f7e16dc676677766a70e9c5628aa6c54ddb8b6e5188e2ae1e1f17f1ffbea71642836040516102de929190610a29565b60405180910390a250565b60606002805480602002602001604051908101604052809291908181526020016000905b8282101561043157838290600052602060002090600302016040518060600160405290816000820160009054906101000a900473ffffffffffffffffffffffffffffffffffffffff1673ffffffffffffffffffffffffffffffffffffffff1673ffffffffffffffffffffffffffffffffffffffff16815260200160018201805461039690610be9565b80601f01602080910402602001604051908101604052809291908181526020018280546103c290610be9565b801561040f5780601f106103e45761010080835404028352916020019161040f565b820191906000526020600020905b8154815290600101906020018083116103f257829003601f168201915b505050505081526020016002820154815250508152602001906001019061030d565b50505050905090565b600061047d6040518060400160405280601181526020017f25642070656f706c65207761766564200a0000000000000000000000000000008152506000546105bd565b600054905090565b61051b816040516024016104999190610977565b6040516020818303038152906040527f41304fac000000000000000000000000000000000000000000000000000000007bffffffffffffffffffffffffffffffffffffffffffffffffffffffff19166020820180517bffffffffffffffffffffffffffffffffffffffffffffffffffffffff8381831617835250505050610659565b50565b6105b883838360405160240161053693929190610999565b6040516020818303038152906040527fe0e9ad4f000000000000000000000000000000000000000000000000000000007bffffffffffffffffffffffffffffffffffffffffffffffffffffffff19166020820180517bffffffffffffffffffffffffffffffffffffffffffffffffffffffff8381831617835250505050610659565b505050565b61065582826040516024016105d39291906109de565b6040516020818303038152906040527f9710a9d0000000000000000000000000000000000000000000000000000000007bffffffffffffffffffffffffffffffffffffffffffffffffffffffff19166020820180517bffffffffffffffffffffffffffffffffffffffffffffffffffffffff8381831617835250505050610659565b5050565b60008151905060006a636f6e736f6c652e6c6f679050602083016000808483855afa5050505050565b82805461068e90610be9565b90600052602060002090601f0160209004810192826106b057600085556106f7565b82601f106106c957805160ff19168380011785556106f7565b828001600101855582156106f7579182015b828111156106f65782518255916020019190600101906106db565b5b5090506107049190610708565b5090565b5b80821115610721576000816000905550600101610709565b5090565b600061073861073384610a7e565b610a59565b90508281526020810184848401111561075057600080fd5b61075b848285610ba7565b509392505050565b600082601f83011261077457600080fd5b8135610784848260208601610725565b91505092915050565b60006020828403121561079f57600080fd5b600082013567ffffffffffffffff8111156107b957600080fd5b6107c584828501610763565b91505092915050565b60006107da83836108e7565b905092915050565b6107eb81610b6b565b82525050565b6107fa81610b6b565b82525050565b600061080b82610abf565b6108158185610ae2565b93508360208202850161082785610aaf565b8060005b85811015610863578484038952815161084485826107ce565b945061084f83610ad5565b925060208a0199505060018101905061082b565b50829750879550505050505092915050565b600061088082610aca565b61088a8185610af3565b935061089a818560208601610bb6565b6108a381610d22565b840191505092915050565b60006108b982610aca565b6108c38185610b04565b93506108d3818560208601610bb6565b6108dc81610d22565b840191505092915050565b60006060830160008301516108ff60008601826107e2565b50602083015184820360208601526109178282610875565b915050604083015161092c6040860182610937565b508091505092915050565b61094081610b9d565b82525050565b61094f81610b9d565b82525050565b6000602082019050818103600083015261096f8184610800565b905092915050565b6000602082019050818103600083015261099181846108ae565b905092915050565b600060608201905081810360008301526109b381866108ae565b90506109c260208301856107f1565b81810360408301526109d481846108ae565b9050949350505050565b600060408201905081810360008301526109f881856108ae565b9050610a076020830184610946565b9392505050565b6000602082019050610a236000830184610946565b92915050565b6000604082019050610a3e6000830185610946565b8181036020830152610a5081846108ae565b90509392505050565b6000610a63610a74565b9050610a6f8282610c1b565b919050565b6000604051905090565b600067ffffffffffffffff821115610a9957610a98610cf3565b5b610aa282610d22565b9050602081019050919050565b6000819050602082019050919050565b600081519050919050565b600081519050919050565b6000602082019050919050565b600082825260208201905092915050565b600082825260208201905092915050565b600082825260208201905092915050565b6000610b2082610b9d565b9150610b2b83610b9d565b9250827fffffffffffffffffffffffffffffffffffffffffffffffffffffffffffffffff03821115610b6057610b5f610c95565b5b828201905092915050565b6000610b7682610b7d565b9050919050565b600073ffffffffffffffffffffffffffffffffffffffff82169050919050565b6000819050919050565b82818337600083830152505050565b60005b83811015610bd4578082015181840152602081019050610bb9565b83811115610be3576000848401525b50505050565b60006002820490506001821680610c0157607f821691505b60208210811415610c1557610c14610cc4565b5b50919050565b610c2482610d22565b810181811067ffffffffffffffff82111715610c4357610c42610cf3565b5b80604052505050565b6000610c5782610b9d565b91507fffffffffffffffffffffffffffffffffffffffffffffffffffffffffffffffff821415610c8a57610c89610c95565b5b600182019050919050565b7f4e487b7100000000000000000000000000000000000000000000000000000000600052601160045260246000fd5b7f4e487b7100000000000000000000000000000000000000000000000000000000600052602260045260246000fd5b7f4e487b7100000000000000000000000000000000000000000000000000000000600052604160045260246000fd5b6000601f19601f830116905091905056fea2646970667358221220e7e8857251bc4b4fe8ac781269da8a9ce90a79ec83a4610631fa23c1695d5a1664736f6c63430008040033",
  "linkReferences": {},
  "deployedLinkReferences": {}
}